:020000040000FA
:0400000031EF10F0DC
:10060000004C61626F7261746F6972652036200000
:10061000000000000053696D6F6E204A6F757264B0
:10062000656E61697300000000594F552057494EAF
:0B06300021002B31204D696E65000099
:10063C00300E0001C36FBAC0B4F0BBC0B5F0000EF1
:10064C000001B76F150EB66F54EC11F0600E00017F
:10065C00BE6F000EBF6F0001B4510001BE27000138
:10066C00B5510001BF230001BC510001BE25D96E5C
:10067C000001BD510001BF21DA6E020EDE18D8B4A4
:10068C004AEF03F04CEF03F062EF05F0030E0001AC
:10069C00BA19BB11D8B455EF03F057EF03F088EF3C
:1006AC0003F0BAC0B4F0BBC0B5F0000E0001B76FD8
:1006BC00150EB66F54EC11F0600E0001BE6F000EFB
:1006CC00BF6F150EBE27000EBF230001B4510001F1
:1006DC00BE270001B5510001BF230001BC51000130
:1006EC00BE25D96E0001BD510001BF21DA6E020E8C
:1006FC00DE18D8A484EF03F086EF03F088EF03F044
:10070C000001C32B0001BA51BB11D8B490EF03F018
:10071C0092EF03F0C7EF03F0BAC0B4F0BBC0B5F072
:10072C00000E0001B76F150EB66F54EC11F0EB0E06
:10073C000001BE6FFF0EBF6F600EC06F000EC16F69
:10074C00BE51C027BF51C1230001B4510001C027C5
:10075C000001B5510001C1230001BC510001C025AD
:10076C00D96E0001BD510001C121DA6E020EDE18F6
:10077C00D8A4C3EF03F0C5EF03F0C7EF03F00001FB
:10078C00C32B030E0001BA19BB11D8B4D0EF03F080
:10079C00D2EF03F00DEF04F00001BC51BD11D8B441
:1007AC00DAEF03F0DCEF03F00DEF04F0BAC0B4F0B5
:1007BC00BBC0B5F0000E0001B76F150EB66F54EC50
:1007CC0011F0600E0001BE6F000EBF6F140EBE273D
:1007DC00000EBF230001B4510001BE270001B5512A
:1007EC000001BF230001BC510001BE25D96E0001E0
:1007FC00BD510001BF21DA6E020EDE18D8A409EF3C
:10080C0004F00BEF04F00DEF04F00001C32B030E0A
:10081C000001BA19BB11D8B416EF04F018EF04F0AC
:10082C0054EF04F0130E0001BC19BD11D8B421EF24
:10083C0004F023EF04F054EF04F0BAC0B4F0BBC0E2
:10084C00B5F0000E0001B76F150EB66F54EC11F039
:10085C00600E0001BE6F000EBF6F160EBE27000E9D
:10086C00BF230001B4510001BE270001B5510001A6
:10087C00BF230001BC510001BE25D96E0001BD5142
:10088C000001BF21DA6E020EDE18D8A450EF04F07E
:10089C0052EF04F054EF04F00001C32B0001BA51E5
:1008AC00BB11D8B45CEF04F05EEF04F09DEF04F0E4
:1008BC000001BC51BD11D8B466EF04F068EF04F030
:1008CC009DEF04F0BAC0B4F0BBC0B5F0000E00014F
:1008DC00B76F150EB66F54EC11F0EA0E0001BE6F37
:1008EC00FF0EBF6F600EC06F000EC16FBE51C027F0
:1008FC00BF51C1230001B4510001C0270001B55103
:10090C000001C1230001BC510001C025D96E0001BA
:10091C00BD510001C121DA6E020EDE18D8A499EF88
:10092C0004F09BEF04F09DEF04F00001C32B0001D9
:10093C00BA51BB11D8B4A5EF04F0A7EF04F0E7EF60
:10094C0004F0130E0001BC19BD11D8B4B0EF04F0C3
:10095C00B2EF04F0E7EF04F0BAC0B4F0BBC0B5F0EE
:10096C00000E0001B76F150EB66F54EC11F0EC0EC3
:10097C000001BE6FFF0EBF6F600EC06F000EC16F27
:10098C00BE51C027BF51C1230001B4510001C02783
:10099C000001B5510001C1230001BC510001C0256B
:1009AC00D96E0001BD510001C121DA6E020EDE18B4
:1009BC00D8A4E3EF04F0E5EF04F0E7EF04F0000156
:1009CC00C32B130E0001BC19BD11D8B4F0EF04F009
:1009DC00F2EF04F023EF05F0BAC0B4F0BBC0B5F0F1
:1009EC00000E0001B76F150EB66F54EC11F0600ECF
:1009FC000001BE6F000EBF6F010EBE27000EBF239D
:100A0C000001B4510001BE270001B5510001BF2304
:100A1C000001BC510001BE25D96E0001BD51000181
:100A2C00BF21DA6E020EDE18D8A41FEF05F021EFFD
:100A3C0005F023EF05F00001C32B0001BC51BD11E3
:100A4C00D8B42BEF05F02DEF05F062EF05F0BAC02E
:100A5C00B4F0BBC0B5F0000E0001B76F150EB66F49
:100A6C0054EC11F0FF0E0001BE6FFF0EBF6F600E55
:100A7C00C06F000EC16FBE51C027BF51C123000112
:100A8C00B4510001C0270001B5510001C123000180
:100A9C00BC510001C025D96E0001BD510001C1211E
:100AAC00DA6E020EDE18D8A45EEF05F060EF05F0EA
:100ABC0062EF05F00001C32B0001C35112000001CD
:100ACC00C36F0001C3050001C46F0001BA0500012A
:100ADC00C56F0001C669C651800A7E0FD8A079EF98
:100AEC0005F07BEF05F07DEF05F021EF07F000013D
:100AFC00C551D8A484EF05F086EF05F092EF05F010
:100B0C000001C629D8A48DEF05F08FEF05F092EF08
:100B1C0005F0000E0001C66F0001C7690001C75146
:100B2C00800A7E0FD8A09DEF05F09FEF05F0A1EF96
:100B3C0005F0FEEF06F00001C451D8A4A8EF05F0B3
:100B4C00AAEF05F0B6EF05F00001C729D8A4B1EF64
:100B5C0005F0B3EF05F0B6EF05F0000E0001C76F1E
:100B6C00C7C0BBF00001BC6BBBBFBC070001C651CA
:100B7C000001B46FB56BB4BFB507000E0001B76FC1
:100B8C00150EB66F54EC11F00001C551150D600E29
:100B9C000001BD6F000EBE6FF350BD27F450BE2395
:100BAC000001B4510001BD270001B5510001BE2365
:100BBC000001C4510001BD27000EBE23BB51BD2551
:100BCC00D96EBC51BE21DA6E020EDE18D8B4F1EF2C
:100BDC0005F0F3EF05F0DBEF06F0C7C0BBF000014A
:100BEC00BC6BBBBFBC070001C6510001B46FB56B39
:100BFC00B4BFB507000E0001B76F150EB66F54ECFD
:100C0C0011F00001C551150D000E0001BD6F010E54
:100C1C00BE6FF350BD27F450BE230001B451000148
:100C2C00BD270001B5510001BE230001C4510001D4
:100C3C00BD27000EBE23BB51BD25D96EBC51BE21B4
:100C4C00DA6EDE04D8A42DEF06F02FEF06F0DBEF02
:100C5C0006F00001C6510001BA250001B76F000172
:100C6C00C7510001C325B4EC0EF0C7C0BBF00001A6
:100C7C00BC6BBBBFBC070001C6510001B46FB56BA8
:100C8C00B4BFB507000E0001B76F150EB66F54EC6C
:100C9C0011F00001C551150D600E0001BD6F000E65
:100CAC00BE6FF350BD27F450BE230001B4510001B8
:100CBC00BD270001B5510001BE230001C451000144
:100CCC00BD27000EBE23BB51BD25D96EBC51BE2124
:100CDC00DA6EC7C0BFF0C06BBFBFC0070001C65102
:100CEC000001B46FB56BB4BFB507000E0001B76F50
:100CFC00150EB66F54EC11F00001C551150D000E18
:100D0C000001C16F010EC26FF350C127F450C22312
:100D1C000001B4510001C1270001B5510001C223EB
:100D2C000001C4510001C127000EC223BF51C125CF
:100D3C00E16EC051C221E26EDFCFE7FFC7C0BBF04E
:100D4C000001BC6BBBBFBC070001C6510001B46FF6
:100D5C00B56BB4BFB507000E0001B76F150EB66FBB
:100D6C0054EC11F00001C551150D000E0001BD6FC2
:100D7C00010EBE6FF350BD27F450BE230001B451D9
:100D8C000001BD270001B5510001BE230001C45173
:100D9C000001BD27000EBE23BB51BD25D96EBC5131
:100DAC00BE21DA6EDF508BEC10F0130E0001C4196B
:100DBC00D8A4E3EF06F0E5EF06F0F1EF06F0000142
:100DCC00C751D8A4ECEF06F0EEEF06F0F1EF06F009
:100DDC00010E0001C76F0001C72B0001C751800A2B
:100DEC007E0FD8A0FCEF06F0FEEF06F0A1EF05F0A9
:100DFC00030E0001C519D8A406EF07F008EF07F0A1
:100E0C0014EF07F00001C651D8A40FEF07F011EF53
:100E1C0007F014EF07F0010E0001C66F0001C62B9E
:100E2C000001C651800A7E0FD8A01FEF07F021EFFA
:100E3C0007F07DEF05F01200000E0001CA6F000EE6
:100E4C000001CB6F000E0001CC6F000E0001CD6FC6
:100E5C0020EF08F0000E0001CC6F030E0001CC65F2
:100E6C003AEF07F03CEF07F03EEF07F020EF08F009
:100E7C00000E0001CD6F130E0001CD6548EF07F099
:100E8C004AEF07F04CEF07F015EF08F00001CC51DA
:100E9C00150D000E0001C66F010EC76FF350C6276B
:100EAC00F450C7230001CD510001C625D96E0001B5
:100EBC00000E0001C721DA6EDE04D8B468EF07F02B
:100ECC006AEF07F089EF07F00001CC51150D000E09
:100EDC000001C66F010EC76FF350C627F450C7232D
:100EEC000001CD510001C625D96E0001000E000194
:100EFC00C721DA6E030EDE18D8A487EF07F089EF4E
:100F0C0007F0ACEF07F00001CC51150D600E00019D
:100F1C00C66F000EC76FF350C627F450C7230001ED
:100F2C00CD510001C625D96E0001000E0001C7216C
:100F3C00DA6E020EDE18D8A4A6EF07F0A8EF07F0C1
:100F4C00ACEF07F00001CA2B0AEF08F00001CC51FE
:100F5C00150D000E0001C66F010EC76FF350C627AA
:100F6C00F450C7230001CD510001C625D96E0001F4
:100F7C00000E0001C721DA6EDE04D8B4C8EF07F00A
:100F8C00CAEF07F0E9EF07F00001CC51150D000E88
:100F9C000001C66F010EC76FF350C627F450C7236C
:100FAC000001CD510001C625D96E0001000E0001D3
:100FBC00C721DA6E030EDE18D8A4E7EF07F0E9EFCD
:100FCC0007F00AEF08F00001CC51150D600E00017E
:100FDC00C66F000EC76FF350C627F450C72300012D
:100FEC00CD510001C625D96E0001000E0001C721AC
:100FFC00DA6E020EDE18D8B406EF08F008EF08F02F
:10100C000AEF08F00001CB2B0001CD2B130E0001D1
:10101C00CD6513EF08F015EF08F04CEF07F0000169
:10102C00CC2B030E0001CC651EEF08F020EF08F06E
:10103C003EEF07F0030E0001CC6527EF08F029EF17
:10104C0008F030EF07F0130E0001CD6530EF08F01B
:10105C0032EF08F030EF07F0C4C0D9FFC5C0DAFF9B
:10106C000001CA510001C86FC96BDE50C81907E1F5
:10107C00DE50C919D8A445EF08F047EF08F05CEF33
:10108C0008F00001CB51D8A44EEF08F050EF08F057
:10109C005CEF08F0FCEC0FF0C4C0D9FFC5C0DAFF60
:1010AC00DE2A000EDD22010E5DEF08F0000E1200AC
:1010BC000001D16F0001C851150DEA0E0001C96F76
:1010CC00FF0ECA6F000ECB6F010ECC6FC951CB2730
:1010DC00CA51CC23F350CB27F450CC230001D1516F
:1010EC000001CB25D96E0001000E0001CC21DA6E77
:1010FC00030EDE18D8B485EF08F087EF08F08DEFFB
:10110C0009F00001C851150DEA0E0001C96FFF0E60
:10111C00CA6F600ECB6F000ECC6FC951CB27CA5172
:10112C00CC23F350CB27F450CC230001D151000138
:10113C00CB25D96E0001000E0001CC21DA6E020E17
:10114C00DE18D8A4ACEF08F0AEEF08F0D8EF08F03A
:10115C000001C851150DEA0E0001C96FFF0ECA6FD0
:10116C00000ECB6F010ECC6FC951CB27CA51CC23CB
:10117C00F350CB27F450CC230001D1510001CB25E7
:10118C00D96E0001000E0001CC21DA6E030EDE18C0
:10119C00D8B4D3EF08F0D5EF08F0D8EF08F0000E74
:1011AC008EEF09F00001C851150DEA0E0001C96F50
:1011BC00FF0ECA6F600ECB6F000ECC6FC951CB27E0
:1011CC00CA51CC23F350CB27F450CC230001D1517E
:1011DC000001CB25D96E0001000E0001CC21DA6E86
:1011EC00020EDE18D8B4FDEF08F0FFEF08F087EF21
:1011FC0009F00001C851150DEA0E0001C96FFF0E70
:10120C00CA6F600ECB6F000ECC6FC951CB27CA5181
:10121C00CC23F350CB27F450CC230001D151000147
:10122C00CB25D96E0001000E0001CC21DA6E200E08
:10123C00DE18D8B424EF09F026EF09F087EF09F097
:10124C000001C851150DEA0E0001C96FFF0ECA6FDF
:10125C00600ECB6F000ECC6FC951CB27CA51CC237B
:10126C00F350CB27F450CC230001D1510001CB25F6
:10127C00D96E0001000E0001CC21DA6E0001C851BC
:10128C00150DEA0E0001CD6FFF0ECE6F000ECF6F65
:10129C00010ED06FCD51CF27CE51D023F350CF2795
:1012AC00F450D0230001D1510001CF25E16E000193
:1012BC00000E0001D021E26EDFCFE7FF0001C85124
:1012CC00150DEA0E0001C96FFF0ECA6F000ECB6F31
:1012DC00010ECC6FC951CB27CA51CC23F350CB276D
:1012EC00F450CC230001D1510001CB25D96E000163
:1012FC00000E0001CC21DA6EDF508BEC10F08DEF7C
:10130C0009F0C8C0BAF00001D15165EC05F0010E2E
:10131C001200020E0001F46F0A0E0001F56F000EB0
:10132C000001F36F010EF26F000E0001F16FF6EC8D
:10133C0010F068EC11F040EC11F071EC0EF052EC86
:10134C000CF0F2C0C8F0F3C0C9F0C1EC0CF0AFEC7B
:10135C000AF0EDEC0EF098EC11F0F50E0001B96FFF
:10136C00000EBA6FF40E0001BB6F000EBC6F8FEC59
:10137C000BF081A2C4EF09F0C6EF09F0FDEF09F004
:10138C00F20E0001C46F000EC56F22EC07F00001D5
:10139C00F16FF4C0C8F00001F5515EEC08F00009E3
:1013AC00D8B4DBEF09F0DDEF09F0E6EF09F000014E
:1013BC00F105D8A4E4EF09F0E6EF09F0A2EF0AF08A
:1013CC0024EC0FF081B2EDEF09F0EFEF09F0E8EF4C
:1013DC0009F052EC0CF0F2C0C8F0F3C0C9F0C1EC4B
:1013EC000CF0AFEC0AF0EDEC0EF0A2EF0AF081B0CD
:1013FC0002EF0AF004EF0AF0A2EF0AF00001F45138
:10140C00150DEA0E0001EC6FFF0EED6F000EEE6F86
:10141C00010EEF6FEC51EE27ED51EF23F350EE2759
:10142C00F450EF230001F5510001EE25D96E0001B7
:10143C00000E0001EF21DA6EDE04D8A428EF0AF0CA
:10144C002AEF0AF04FEF0AF00001F451150DEA0EE5
:10145C000001EC6FFF0EED6F000EEE6F010EEF6FE3
:10146C00EC51EE27ED51EF23F350EE27F450EF2320
:10147C000001F5510001EE25D96E0001000E0001AE
:10148C00EF21DA6E030EDF6E030E8BEC10F099EF8A
:10149C000AF00001F451150DEA0E0001EC6FFF0E7D
:1014AC00ED6F000EEE6F010EEF6FEC51EE27ED516C
:1014BC00EF23F350EE27F450EF230001F551000118
:1014CC00EE25D96E0001000E0001EF21DA6E030E3D
:1014DC00DE18D8A474EF0AF076EF0AF099EF0AF050
:1014EC000001F451150DEA0E0001EC6FFF0EED6FCB
:1014FC00000EEE6F010EEF6FEC51EE27ED51EF2366
:10150C00F350EE27F450EF230001F5510001EE25C6
:10151C00D96E0001000E0001EF21DA6E010EDF6EB4
:10152C00010E8BEC10F0090E0001EC6F1C0EE82E76
:10153C00FED7EC2FFCD700F0210E0001EC6F760EDD
:10154C00E82EFED7EC2FFCD700F0B3EF09F000EF3C
:10155C0000F0000E0001C76F000E0001C96F030EF2
:10156C000001C965BCEF0AF0BEEF0AF0C0EF0AF04B
:10157C006AEF0BF0000E0001CA6F130E0001CA6572
:10158C00CAEF0AF0CCEF0AF0CEEF0AF05FEF0BF0E7
:10159C00C9C0BAF00001BB6BCAC0BCF00001BD6B86
:1015AC001EEC03F00001C76F300E0001C719D8B450
:1015BC00E2EF0AF0E4EF0AF01DEF0BF00001C95165
:1015CC00150D600E0001C46F000EC56FF350C427DB
:1015DC00F450C5230001CA510001C425D96E000185
:1015EC00000E0001C521DA6E020EDE18D8B401EF30
:1015FC000BF003EF0BF01DEF0BF00001C951150DB3
:10160C00600E0001C46F000EC56FF350C427F45078
:10161C00C5230001CA510001C425D96E0001000E7A
:10162C000001C521DA6EC7C0DFFF54EF0BF00001DB
:10163C00C951150D600E0001C46F000EC56FF3503B
:10164C00C427F450C5230001CA510001C425D96E2A
:10165C000001000E0001C521DA6E020EDE18D8B4AE
:10166C003AEF0BF03CEF0BF054EF0BF00001C951CB
:10167C00150D600E0001C46F000EC56FF350C4272A
:10168C00F450C5230001CA510001C425D96E0001D4
:10169C00000E0001C521DA6E200EDF6E0001CA2B90
:1016AC00130E0001CA655DEF0BF05FEF0BF0CEEF90
:1016BC000AF00001C92B030E0001C96568EF0BF09D
:1016CC006AEF0BF0C0EF0AF0000E0001C86F030EBA
:1016DC000001C86574EF0BF076EF0BF078EF0BF0B0
:1016EC008EEF0BF00001C851150D740EF324D96E5A
:1016FC00000EF420DA6E000EDF6E0001C82B030E14
:10170C000001C8658CEF0BF08EEF0BF078EF0BF04F
:10171C001200070E2AEC11F00001BD6FB40EBD656E
:10172C009AEF0BF09CEF0BF0BDEF0BF0B9C0D9FFAB
:10173C00BAC0DAFFDF500001BD6FBD05B9C0D9FFDB
:10174C00BAC0DAFFDF6EB9C0D9FFBAC0DAFFDF501A
:10175C00D8A4B3EF0BF0B5EF0BF0E9EF0BF0B9C079
:10176C00D9FFBAC0DAFF140EDF6EE9EF0BF0070EEB
:10177C002AEC11F00001BD6F500EBD61C8EF0BF0EB
:10178C00CAEF0BF0E9EF0BF0B9C0D9FFBAC0DAFF22
:10179C00DF500001BD6FBD29B9C0D9FFBAC0DAFF57
:1017AC00DF6EB9C0D9FFBAC0DAFF140EDF64E1EF07
:1017BC000BF0E3EF0BF0E9EF0BF0B9C0D9FFBAC0B7
:1017CC00DAFF010EDF6E060E2AEC11F00001BD6F80
:1017DC00500EBD61F4EF0BF0F6EF0BF017EF0CF0C1
:1017EC00BBC0D9FFBCC0DAFFDF500001BD6FBD0527
:1017FC00BBC0D9FFBCC0DAFFDF6EBBC0D9FFBCC019
:10180C00DAFFDF50D8A40DEF0CF00FEF0CF043EF24
:10181C000CF0BBC0D9FFBCC0DAFF040EDF6E43EF87
:10182C000CF0060E2AEC11F00001BD6FB40EBD6574
:10183C0022EF0CF024EF0CF043EF0CF0BBC0D9FFFF
:10184C00BCC0DAFFDF500001BD6FBD29BBC0D9FFA2
:10185C00BCC0DAFFDF6EBBC0D9FFBCC0DAFF040E20
:10186C00DF643BEF0CF03DEF0CF043EF0CF0BBC032
:10187C00D9FFBCC0DAFF010EDF6EBBC0D9FFBCC004
:10188C00DAFFDF500001B76FB9C0D9FFBAC0DAFF79
:10189C00DF50B4EC0EF01200000E0001B66F030E18
:1018AC000001B6655CEF0CF05EEF0CF060EF0CF035
:1018BC009CEF0CF0000E0001B76F130E0001B76522
:1018CC006AEF0CF06CEF0CF06EEF0CF091EF0CF08B
:1018DC000001B651150D000E0001B46F010EB56F6D
:1018EC00F350B427F450B5230001B7510001B425CF
:1018FC00D96E0001000E0001B521DA6E010EDF6E0B
:10190C000001B72B130E0001B7658FEF0CF091EFB0
:10191C000CF06EEF0CF00001B62B030E0001B66557
:10192C009AEF0CF09CEF0CF060EF0CF0000E000145
:10193C00B86F030E0001B865A6EF0CF0A8EF0CF021
:10194C00AAEF0CF0C0EF0CF00001B851150D140EFD
:10195C00F324D96E010EF420DA6E000EDF6E000156
:10196C00B82B030E0001B865BEEF0CF0C0EF0CF005
:10197C00AAEF0CF01200C8C0CDF026EC0EF018EF58
:10198C000DF060EC10F00001C051030B0001CE6FA4
:10199C0060EC10F0C0C0C2F0C1C0C3F0000E00017A
:1019AC00C56F140EC46F7CEC0DF00001C251000128
:1019BC00CF6F0001CE51150D600E0001CA6F000EE5
:1019CC00CB6FF350CA27F450CB230001CF51000149
:1019DC00CA25D96E0001000E0001CB21DA6E020E71
:1019EC00DE18D8B4FCEF0CF0FEEF0CF018EF0DF095
:1019FC000001CE51150D600E0001CA6F000ECB6FA9
:101A0C00F350CA27F450CB230001CF510001CA2553
:101A1C00D96E0001000E0001CB21DA6E020EDF6ED2
:101A2C000001CD070001CD51D8A41FEF0DF021EF1F
:101A3C000DF0C7EF0CF01200000E0001C16F4FEF5C
:101A4C000DF00001C1510001BC6FBD6BBC51000118
:101A5C00B9250001BE6FBD510001BA210001BF6F55
:101A6C00000E0001BB210001C06FBEC0F6FFBFC05D
:101A7C00F7FFC0C0F8FFF8BA03D00800F55005D046
:101A8C00F6CFE9FFF7CFEAFFEF508BEC10F0000137
:101A9C00C12B0001C1510001BC6FBD6BBC510001D9
:101AAC00B9250001BE6FBD510001BA210001BF6F05
:101ABC00000E0001BB210001C06FBEC0F6FFBFC00D
:101ACC00F7FFC0C0F8FFF8BA03D00800F55005D0F6
:101ADC00F6CFE9FFF7CFEAFFEF500009D8A479EF72
:101AEC000DF07BEF0DF027EF0DF01200000E000152
:101AFC00C76FC3BF86EF0DF084EF0DF08CEF0DF0C8
:101B0C00C26DC31FD8B0C32B010EC76FC5BF93EFF7
:101B1C000DF091EF0DF097EF0DF0C46DC51FD8B01F
:101B2C00C52BC451C511D8B49EEF0DF0A0EF0DF02C
:101B3C00C4EF0DF0010EC66FA8EF0DF0D890C437AE
:101B4C00C537C62BC5AFADEF0DF0AFEF0DF0A4EF61
:101B5C000DF0C451C25DC551C359D8A0B8EF0DF0FA
:101B6C00BAEF0DF0BEEF0DF0C451C25FC551C35BAF
:101B7C00D890C533C433C62FAFEF0DF0C751D8B4CE
:101B8C00CAEF0DF0CCEF0DF0D0EF0DF0C26DC31F0E
:101B9C00D8B0C32BC2C0C2F0C3C0C3F01200400EF9
:101BAC0091EC0FF0000E0001B96F070E0001B96542
:101BBC00E2EF0DF0E4EF0DF0E6EF0DF023EF0EF099
:101BCC00000E0001BA6F070E0001BA65F0EF0DF0C0
:101BDC00F2EF0DF0F4EF0DF018EF0EF00001B9512B
:101BEC00080D540E0001B76F010EB86FF350B727F4
:101BFC00F450B8230001BA510001B725D96E000189
:101C0C00000E0001B821DA6EDF5010EC11F000016B
:101C1C00BA2B070E0001BA6516EF0EF018EF0EF096
:101C2C00F4EF0DF00001B92B070E0001B96521EF9F
:101C3C000EF023EF0EF0E6EF0DF09CEC11F012001D
:101C4C00000E0001B66F030E0001B66530EF0EF00A
:101C5C0032EF0EF034EF0EF070EF0EF0000E0001CC
:101C6C00B76F130E0001B7653EEF0EF040EF0EF0AC
:101C7C0042EF0EF065EF0EF00001B651150D600E3F
:101C8C000001B46F000EB56FF350B427F450B523B8
:101C9C000001B7510001B425D96E0001000E0001FE
:101CAC00B521DA6E200EDF6E0001B72B130E00018A
:101CBC00B76563EF0EF065EF0EF042EF0EF000012A
:101CCC00B62B030E0001B6656EEF0EF070EF0EF042
:101CDC0034EF0EF01200010EF66E060EF76E000ECB
:101CEC00F86E20EEC4F0270E0900F5CFDEFFE806F3
:101CFC00FBE28DEC11F0C40E0001B96F000EBA6F4F
:101D0C00B951BA11D8A4200EBB6F22EC0DF0030E02
:101D1C000001B76F010EB4EC0EF0D80E0001B96FD4
:101D2C00000EBA6FB951BA11D8A4200EBB6F22ECB9
:101D3C000DF09CEC11F094EC11F0020E0001C36F4D
:101D4C00450EC26FA90EE82EFED7C22FFCD7C32FAB
:101D5C00FAD700F000F08DEC11F012000001B86F12
:101D6C00D8EF0EF00001B8517F0F800991EC0FF005
:101D7C00ECEF0EF00001B851BF0F800991EC0FF0A1
:101D8C00ECEF0EF00001B851930F800991EC0FF0BD
:101D9C00ECEF0EF00001B851D30F800991EC0FF06D
:101DAC00ECEF0EF00001B751010AD8B4B8EF0EF009
:101DBC00030AD8B4C0EF0EF0010AD8B4C8EF0EF085
:101DCC00070AD8B4D0EF0EF0ECEF0EF01200000EB4
:101DDC000001C46F030E0001C465F7EF0EF0F9EFBC
:101DEC000EF0FBEF0EF023EF0FF00001C429000101
:101DFC00B76F010EB4EC0EF00001C451150D000EBE
:101E0C00F3240001C26F010EF420C36FC2C0B9F0FD
:101E1C00C3C0BAF00001B951BA11D8A4200EBB6FDF
:101E2C0022EC0DF00001C42B030E0001C46521EF60
:101E3C000FF023EF0FF0FBEF0EF01200000E00017D
:101E4C00C46F030E0001C4652EEF0FF030EF0FF0DE
:101E5C0032EF0FF05AEF0FF00001C4290001B76FF9
:101E6C00010EB4EC0EF00001C451150D600EF324FC
:101E7C000001C26F000EF420C36FC2C0B9F0C3C022
:101E8C00BAF00001B951BA11D8A4200EBB6F22ECE4
:101E9C000DF00001C42B030E0001C46558EF0FF0C8
:101EAC005AEF0FF032EF0FF01200000E0001BC6F72
:101EBC00000EBD6F000EBE6F000EBF6FB4A169EFB8
:101ECC000FF06BEF0FF073EF0FF0B851BC27B95157
:101EDC00BD23BA51BE23BB51BF23D890B837B937F5
:101EEC00BA37BB37D890B733B633B533B433B451F4
:101EFC00B511B611B711D8A486EF0FF088EF0FF01B
:101F0C0064EF0FF0BCC0B4F0BDC0B5F0BEC0B6F00D
:101F1C00BFC0B7F012000001B66FB5EC10F0000EA8
:101F2C00956E809080920001B6390F0B77EC11F012
:101F3C00A0EC11F00001B65177EC11F0A0EC11F00F
:101F4C00030EE82EFED700F00001B605D8B4B1EFB1
:101F5C000FF0B3EF0FF0BDEF0FF0020E0001B6194A
:101F6C00D8A4BBEF0FF0BDEF0FF0C2EF0FF0A60E31
:101F7C00E82EFED700F000F00F0E956EB5EC10F0C9
:101F8C001200000E956E0D0E0001B66FFB0EE82EC2
:101F9C00FED7B62FFCD700F000F080908092030E95
:101FAC0077EC11F0A0EC11F0030EE82EFED700F048
:101FBC00030E77EC11F0A0EC11F0030EE82EFED717
:101FCC0000F0030E77EC11F0A0EC11F0030EE82EEC
:101FDC00FED700F0020E77EC11F0A0EC11F0030E1E
:101FEC00E82EFED700F00F0E956E12008DEC11F05E
:101FFC00020E0001B76F050EB4EC0EF0290E0001B5
:10200C00B96F060EBA6FB951BA11D8A4000EBB6FD6
:10201C0022EC0DF0030E0001B76F060EB4EC0EF0BF
:10202C00320E0001B96F060EBA6FB951BA11D8A4AD
:10203C00000EBB6F22EC0DF0040E0001C36F2C0ED2
:10204C00C26FAB0EE82EFED7C22FFCD7C32FFAD728
:10205C0000F000F01200AC0EF66E210EF76E000EC2
:10206C00F86E01EE54F010EE40F00900F5CFEEFFE3
:10207C00E550E150FAE14E0EF66E230EF76E000EAF
:10208C00F86E00EEF6F010EE04F00900F5CFEEFF5E
:10209C00E550E150FAE101EE00F0540EEE6AE8066C
:1020AC00FDE100EE60F0540EEE6AE806FDE1000181
:1020BC008FEF09F0F6C0B4F0F7C0B5F0F8C0B6F089
:1020CC00F9C0B7F06D0E0001B86F4E0EB96FC60EA9
:1020DC00BA6F410EBB6F5BEC0FF0B4C0F6F0B5C03D
:1020EC00F7F0B6C0F8F0B7C0F9F0390E0001F627DA
:1020FC00300EF723000EF823000EF923FF0EF8150F
:10210C00C06F7F0EF915C16F12000001B76F00018F
:10211C00B75110EC11F00001B86FA4EF10F0C00E25
:10212C0091EC0FF0B4EF10F0940E91EC0FF0B4EFC3
:10213C0010F0D40E91EC0FF0B4EF10F00001B85188
:10214C00940AD8B495EF10F0540AD8B49FEF10F05D
:10215C00140AD8B49AEF10F0B4EF10F0120080907B
:10216C008082808400F0A4EC11F00001B46FB439CB
:10217C00F00B0001B56F8094808400F0A4EC11F09A
:10218C000001B51380940001B5BFCFEF10F0D1EF73
:10219C0010F0B7EF10F080920001B5517F0B1200D8
:1021AC000804040A111F11001F1B111111111B1F10
:1021BC0003040A151F150A001F11111F101010100F
:1021CC00111115150E0A1500110A041B111B15000F
:1021DC001B0E1B1B1B1111000A0415151B0A0400F6
:1021EC00000E956E000E7F6E9368000E7E6E000ED4
:1021FC00926ECD80CECFB4F0CFCFB5F085EC11F090
:10220C007E8EC280000EC16EC09EC70EC016F80E28
:10221C00C01612000001B66FB5EC10F0000E956EF2
:10222C00808080920001B6390F0B77EC11F0A0EC96
:10223C0011F00001B65177EC11F0A0EC11F00F0E7B
:10224C00956EB5EC10F012000001B56FB5C0B4F08E
:10225C000001B447B447C250B419C30BB419C26ED1
:10226C00C282C2B23CEF11F03EEF11F037EF11F029
:10227C00C4501200C7EC0FF0280E91EC0FF00F0EAB
:10228C0091EC0FF0010E91EC0FF0060E91EC0FF0AB
:10229C00800E91EC0FF0D5EC0DF012000001B45152
:1022AC00B603F3CFB8F0F4CFB9F0B451B703F35091
:1022BC00B927B551B603F350B927B8C0B4F0B9C0BB
:1022CC00B5F01200948E948C000EB06E190EAF6E99
:1022DC00B886AC84AC98AC8AAB88AB8E000E7E6EA4
:1022EC0012000001B56F83CFB4F0F00E0001B417EB
:1022FC000001B5510F0B0001B411836E1200B4C074
:10230C00F6F0B5C0F7F00001F86BF96B1200010E96
:10231C0091EC0FF0800E91EC0FF012000C0E91EC82
:10232C000FF012000F0E91EC0FF01200020E91EC58
:10233C000FF01200808400F08094120083500F0B79
:06234C0012000100000078
:020000040020DA
:08000000FFFFFFFFFFFFFFFF00
:020000040030CA
:0E000000FF081F1EFF8B81FF0FC00FE00F4097
:00000001FF
