:020000040000FA
:04000000EAEF18F01B
:10060000004C61626F7261746F6972652036200000
:10061000000000000053696D6F6E204A6F757264B0
:10062000656E61697300000000594F552057494EAF
:0B06300021002B31204D696E65000099
:10063C00C0C0C6F0030E0001BC19BD11D8B429EF1F
:10064C0003F02BEF03F0B8EF03F0BCC0B4F0BDC067
:10065C00B5F0000E0001B76F150EB66F0DEC1AF069
:10066C00600E0001C16F000EC26F150EC127000E87
:10067C00C2230001B4510001C1270001B551000192
:10068C00C2230001BE510001C125D96E0001BF512A
:10069C000001C221DA6E200EDE18D8A458EF03F048
:1006AC005AEF03F0B8EF03F0BCC0B4F0BDC0B5F026
:1006BC00000E0001B76F150EB66F0DEC1AF09C0E04
:1006CC000001C16F010EC26F150EC127000EC223AF
:1006DC000001B4510001C1270001B5510001C22332
:1006EC000001BE510001C125D96E0001BF510001AE
:1006FC00C221DA6E200EDE18D8B487EF03F089EF32
:10070C0003F0B8EF03F0BCC0B4F0BDC0B5F0000E00
:10071C000001B76F640EB66F0DEC1AF00001BE51FC
:10072C000001B4270001BF510001B523640EB427AA
:10073C00000EB5230001C651020DF3CFC1F0F4CF6A
:10074C00C2F00001C1510001BA25D96E0001C2519D
:10075C000001BB21DA6E0001B4C0DEFFB5C0DDFFC5
:10076C000001C62B0001BC51BD11D8B4C0EF03F081
:10077C00C2EF03F060EF04F0BCC0B4F0BDC0B5F044
:10078C00000E0001B76F150EB66F0DEC1AF0EB0EE4
:10079C000001C16FFF0EC26F600EC36F000EC46FFD
:1007AC00C151C327C251C4230001B4510001C32756
:1007BC000001B5510001C4230001BE510001C32545
:1007CC00D96E0001BF510001C421DA6E200EDE1873
:1007DC00D8A4F3EF03F0F5EF03F060EF04F0BCC026
:1007EC00B4F0BDC0B5F0000E0001B76F150EB66FBA
:1007FC000DEC1AF0EB0E0001C16FFF0EC26F9C0ED8
:10080C00C36F010EC46FC151C327C251C423000171
:10081C00B4510001C3270001B5510001C4230001EC
:10082C00BE510001C325D96E0001BF510001C42186
:10083C00DA6E200EDE18D8B426EF04F028EF04F0A0
:10084C0060EF04F09C0E0001C16FFF0EC26FBCC0C4
:10085C00B4F0BDC0B5F0000E0001B76F640EB66FFA
:10086C000DEC1AF00001BE510001B4270001BF517C
:10087C000001B5230001C1510001B4270001C25190
:10088C000001B5230001C651020DF3CFC3F0F4CF24
:10089C00C4F00001C3510001BA25D96E0001C45146
:1008AC000001BB21DA6E0001B4C0DEFFB5C0DDFF74
:1008BC000001C62B130E0001BE19BF11D8B469EF8D
:1008CC0004F06BEF04F0F8EF04F0BCC0B4F0BDC062
:1008DC00B5F0000E0001B76F150EB66F0DEC1AF0E7
:1008EC00600E0001C16F000EC26F010EC127000E19
:1008FC00C2230001B4510001C1270001B551000110
:10090C00C2230001BE510001C125D96E0001BF51A7
:10091C000001C221DA6E200EDE18D8A498EF04F084
:10092C009AEF04F0F8EF04F0BCC0B4F0BDC0B5F021
:10093C00000E0001B76F150EB66F0DEC1AF09C0E81
:10094C000001C16F010EC26F010EC127000EC22340
:10095C000001B4510001C1270001B5510001C223AF
:10096C000001BE510001C125D96E0001BF5100012B
:10097C00C221DA6E200EDE18D8B4C7EF04F0C9EF2E
:10098C0004F0F8EF04F0BCC0B4F0BDC0B5F0000E3C
:10099C000001B76F640EB66F0DEC1AF00001BE517A
:1009AC000001B4270001BF510001B523010EB4278B
:1009BC00000EB5230001C651020DF3CFC1F0F4CFE8
:1009CC00C2F00001C1510001BA25D96E0001C2511B
:1009DC000001BB21DA6E0001B4C0DEFFB5C0DDFF43
:1009EC000001C62B0001BE51BF11D8B400EF05F0B9
:1009FC0002EF05F0A0EF05F0BCC0B4F0BDC0B5F03F
:100A0C00000E0001B76F150EB66F0DEC1AF0FF0E4D
:100A1C000001C16FFF0EC26F600EC36F000EC46F7A
:100A2C00C151C327C251C4230001B4510001C327D3
:100A3C000001B5510001C4230001BE510001C325C2
:100A4C00D96E0001BF510001C421DA6E200EDE18F0
:100A5C00D8A433EF05F035EF05F0A0EF05F0BCC0DE
:100A6C00B4F0BDC0B5F0000E0001B76F150EB66F37
:100A7C000DEC1AF0FF0E0001C16FFF0EC26F9C0E41
:100A8C00C36F010EC46FC151C327C251C4230001EF
:100A9C00B4510001C3270001B5510001C42300016A
:100AAC00BE510001C325D96E0001BF510001C42104
:100ABC00DA6E200EDE18D8B466EF05F068EF05F09C
:100ACC00A0EF05F0FF0E0001C16FFF0EC26FBCC09E
:100ADC00B4F0BDC0B5F0000E0001B76F640EB66F78
:100AEC000DEC1AF00001BE510001B4270001BF51FA
:100AFC000001B5230001C1510001B4270001C2510E
:100B0C000001B5230001C651020DF3CFC3F0F4CFA1
:100B1C00C4F00001C3510001BA25D96E0001C451C3
:100B2C000001BB21DA6E0001B4C0DEFFB5C0DDFFF1
:100B3C000001C62B030E0001BC19BD11D8B4A9EFDE
:100B4C0005F0ABEF05F04BEF06F00001BE51BF1105
:100B5C00D8B4B3EF05F0B5EF05F04BEF06F0BCC021
:100B6C00B4F0BDC0B5F0000E0001B76F150EB66F36
:100B7C000DEC1AF0600E0001C16F000EC26F140E66
:100B8C00C127000EC2230001B4510001C12700018E
:100B9C00B5510001C2230001BE510001C125D96E1F
:100BAC000001BF510001C221DA6E200EDE18D8A45C
:100BBC00E2EF05F0E4EF05F04BEF06F0BCC0B4F04B
:100BCC00BDC0B5F0000E0001B76F150EB66F0DEC81
:100BDC001AF09C0E0001C16F010EC26F140EC127DA
:100BEC00000EC2230001B4510001C1270001B55110
:100BFC000001C2230001BE510001C125D96E0001C4
:100C0C00BF510001C221DA6E200EDE18D8B411EFEC
:100C1C0006F013EF06F04BEF06F0FF0E0001C16F6C
:100C2C00FF0EC26FBCC0B4F0BDC0B5F0000E000129
:100C3C00B76F640EB66F0DEC1AF00001BE510001D7
:100C4C00B4270001BF510001B5230001C1510001BF
:100C5C00B4270001C2510001B5230001C651020D99
:100C6C00F3CFC3F0F4CFC4F00001C3510001BA2597
:100C7C00D96E0001C4510001BB21DA6E0001B4C071
:100C8C00DEFFB5C0DDFF0001C62B030E0001BC1951
:100C9C00BD11D8B454EF06F056EF06F0F7EF06F09E
:100CAC00130E0001BE19BF11D8B45FEF06F061EF4F
:100CBC0006F0F7EF06F0BCC0B4F0BDC0B5F0000E06
:100CCC000001B76F150EB66F0DEC1AF0600E000137
:100CDC00C16F000EC26F160EC127000EC223000199
:100CEC00B4510001C1270001B5510001C22300011C
:100CFC00BE510001C125D96E0001BF510001C221B6
:100D0C00DA6E200EDE18D8A48EEF06F090EF06F007
:100D1C00F7EF06F0BCC0B4F0BDC0B5F0000E00019A
:100D2C00B76F150EB66F0DEC1AF09C0E0001C16F6B
:100D3C00010EC26F160EC127000EC2230001B45162
:100D4C000001C1270001B5510001C2230001BE51B1
:100D5C000001C125D96E0001BF510001C221DA6E1C
:100D6C00200EDE18D8B4BDEF06F0BFEF06F0F7EF9B
:100D7C0006F0FF0E0001C16FFF0EC26FBCC0B4F0D5
:100D8C00BDC0B5F0000E0001B76F640EB66F0DEC70
:100D9C001AF00001BE510001B4270001BF5100013F
:100DAC00B5230001C1510001B4270001C25100015B
:100DBC00B5230001C651020DF3CFC3F0F4CFC4F03C
:100DCC000001C3510001BA25D96E0001C4510001C4
:100DDC00BB21DA6E0001B4C0DEFFB5C0DDFF00013F
:100DEC00C62B0001BC51BD11D8B4FFEF06F001EFCA
:100DFC0007F0A9EF07F00001BE51BF11D8B409EFFD
:100E0C0007F00BEF07F0A9EF07F0BCC0B4F0BDC0C2
:100E1C00B5F0000E0001B76F150EB66F0DEC1AF0A1
:100E2C00EA0E0001C16FFF0EC26F600EC36F000EA1
:100E3C00C46FC151C327C251C4230001B451000176
:100E4C00C3270001B5510001C4230001BE510001AC
:100E5C00C325D96E0001BF510001C421DA6E200EEA
:100E6C00DE18D8A43CEF07F03EEF07F0A9EF07F02F
:100E7C00BCC0B4F0BDC0B5F0000E0001B76F150ECC
:100E8C00B66F0DEC1AF0EA0E0001C16FFF0EC26FC7
:100E9C009C0EC36F010EC46FC151C327C251C42332
:100EAC000001B4510001C3270001B5510001C42356
:100EBC000001BE510001C325D96E0001BF510001D4
:100ECC00C421DA6E200EDE18D8B46FEF07F071EF84
:100EDC0007F0A9EF07F0FF0E0001C16FFF0EC26F04
:100EEC00BCC0B4F0BDC0B5F0000E0001B76F640E0D
:100EFC00B66F0DEC1AF00001BE510001B4270001D1
:100F0C00BF510001B5230001C1510001B4270001FC
:100F1C00C2510001B5230001C651020DF3CFC3F03D
:100F2C00F4CFC4F00001C3510001BA25D96E000101
:100F3C00C4510001BB21DA6E0001B4C0DEFFB5C0A4
:100F4C00DDFF0001C62B0001BC51BD11D8B4B1EFBF
:100F5C0007F0B3EF07F05CEF08F0130E0001BE19B9
:100F6C00BF11D8B4BCEF07F0BEEF07F05CEF08F090
:100F7C00BCC0B4F0BDC0B5F0000E0001B76F150ECB
:100F8C00B66F0DEC1AF0EC0E0001C16FFF0EC26FC4
:100F9C00600EC36F000EC46FC151C327C251C4236E
:100FAC000001B4510001C3270001B5510001C42355
:100FBC000001BE510001C325D96E0001BF510001D3
:100FCC00C421DA6E200EDE18D8A4EFEF07F0F1EF93
:100FDC0007F05CEF08F0BCC0B4F0BDC0B5F0000E7B
:100FEC000001B76F150EB66F0DEC1AF0EC0E000188
:100FFC00C16FFF0EC26F9C0EC36F010EC46FC15147
:10100C00C327C251C4230001B4510001C3270001FE
:10101C00B5510001C4230001BE510001C325D96E96
:10102C000001BF510001C421DA6E200EDE18D8B4C5
:10103C0022EF08F024EF08F05CEF08F0FF0E00013F
:10104C00C16FFF0EC26FBCC0B4F0BDC0B5F0000ED6
:10105C000001B76F640EB66F0DEC1AF00001BE51B3
:10106C000001B4270001BF510001B5230001C1519B
:10107C000001B4270001C2510001B5230001C65183
:10108C00020DF3CFC3F0F4CFC4F00001C351000143
:10109C00BA25D96E0001C4510001BB21DA6E0001E2
:1010AC00B4C0DEFFB5C0DDFF0001C62B1200300E50
:1010BC000001C36FBAC0B4F0BBC0B5F0000E0001A4
:1010CC00B76F150EB66F0DEC1AF0600E0001BE6F07
:1010DC00000EBF6F0001B4510001BE270001B551D5
:1010EC000001BF230001BC510001BE25D96E0001D7
:1010FC00BD510001BF21DA6E020EDE18D8B489EFA3
:10110C0008F08BEF08F0A1EF0AF0030E0001BA19FA
:10111C00BB11D8B494EF08F096EF08F0C7EF08F0C5
:10112C00BAC0B4F0BBC0B5F0000E0001B76F150E1D
:10113C00B66F0DEC1AF0600E0001BE6F000EBF6FA3
:10114C00150EBE27000EBF230001B4510001BE27AF
:10115C000001B5510001BF230001BC510001BE25A7
:10116C00D96E0001BD510001BF21DA6E020EDE18EE
:10117C00D8A4C3EF08F0C5EF08F0C7EF08F00001E2
:10118C00C32B0001BA51BB11D8B4CFEF08F0D1EF8B
:10119C0008F006EF09F0BAC0B4F0BBC0B5F0000E11
:1011AC000001B76F150EB66F0DEC1AF0EB0E0001C7
:1011BC00BE6FFF0EBF6F600EC06F000EC16FBE51D1
:1011CC00C027BF51C1230001B4510001C027000149
:1011DC00B5510001C1230001BC510001C025D96EDD
:1011EC000001BD510001C121DA6E020EDE18D8A437
:1011FC0002EF09F004EF09F006EF09F00001C32B30
:10120C00030E0001BA19BB11D8B40FEF09F011EF9E
:10121C0009F04CEF09F00001BC51BD11D8B419EF25
:10122C0009F01BEF09F04CEF09F0BAC0B4F0BBC0E9
:10123C00B5F0000E0001B76F150EB66F0DEC1AF07D
:10124C00600E0001BE6F000EBF6F140EBE27000EA5
:10125C00BF230001B4510001BE270001B5510001AC
:10126C00BF230001BC510001BE25D96E0001BD5148
:10127C000001BF21DA6E020EDE18D8A448EF09F087
:10128C004AEF09F04CEF09F00001C32B030E0001EB
:10129C00BA19BB11D8B455EF09F057EF09F093EF19
:1012AC0009F0130E0001BC19BD11D8B460EF09F0A0
:1012BC0062EF09F093EF09F0BAC0B4F0BBC0B5F01F
:1012CC00000E0001B76F150EB66F0DEC1AF0600E24
:1012DC000001BE6F000EBF6F160EBE27000EBF239F
:1012EC000001B4510001BE270001B5510001BF231C
:1012FC000001BC510001BE25D96E0001BD51000199
:10130C00BF21DA6E020EDE18D8A48FEF09F091EF30
:10131C0009F093EF09F00001C32B0001BA51BB1186
:10132C00D8B49BEF09F09DEF09F0DCEF09F0000158
:10133C00BC51BD11D8B4A5EF09F0A7EF09F0DCEF53
:10134C0009F0BAC0B4F0BBC0B5F0000E0001B76F25
:10135C00150EB66F0DEC1AF0EA0E0001BE6FFF0E03
:10136C00BF6F600EC06F000EC16FBE51C027BF5162
:10137C00C1230001B4510001C0270001B551000187
:10138C00C1230001BC510001C025D96E0001BD5123
:10139C000001C121DA6E020EDE18D8A4D8EF09F0D4
:1013AC00DAEF09F0DCEF09F00001C32B0001BA51B0
:1013BC00BB11D8B4E4EF09F0E6EF09F026EF0AF020
:1013CC00130E0001BC19BD11D8B4EFEF09F0F1EF09
:1013DC0009F026EF0AF0BAC0B4F0BBC0B5F0000EAD
:1013EC000001B76F150EB66F0DEC1AF0EC0E000184
:1013FC00BE6FFF0EBF6F600EC06F000EC16FBE518F
:10140C00C027BF51C1230001B4510001C027000106
:10141C00B5510001C1230001BC510001C025D96E9A
:10142C000001BD510001C121DA6E020EDE18D8A4F4
:10143C0022EF0AF024EF0AF026EF0AF00001C32B8A
:10144C00130E0001BC19BD11D8B42FEF0AF031EF07
:10145C000AF062EF0AF0BAC0B4F0BBC0B5F0000EEF
:10146C000001B76F150EB66F0DEC1AF0600E00018F
:10147C00BE6F000EBF6F010EBE27000EBF23000112
:10148C00B4510001BE270001B5510001BF2300017A
:10149C00BC510001BE25D96E0001BD510001BF2118
:1014AC00DA6E020EDE18D8A45EEF0AF060EF0AF0D6
:1014BC0062EF0AF00001C32B0001BC51BD11D8B47E
:1014CC006AEF0AF06CEF0AF0A1EF0AF0BAC0B4F0C0
:1014DC00BBC0B5F0000E0001B76F150EB66F0DEC6A
:1014EC001AF0FF0E0001BE6FFF0EBF6F600EC06FD3
:1014FC00000EC16FBE51C027BF51C1230001B451B2
:10150C000001C0270001B5510001C1230001BC51ED
:10151C000001C025D96E0001BD510001C121DA6E58
:10152C00020EDE18D8A49DEF0AF09FEF0AF0A1EF8F
:10153C000AF00001C32B0001C35112000001D96F46
:10154C000001D9050001DA6F0001D0050001DB6F45
:10155C000001DC69DC51800A7E0FD8A0B8EF0AF0DC
:10156C00BAEF0AF0BCEF0AF0BBEF0CF00001DB5154
:10157C00D8A4C3EF0AF0C5EF0AF0D1EF0AF00001CE
:10158C00DC29D8A4CCEF0AF0CEEF0AF0D1EF0AF0A8
:10159C00000E0001DC6F0001DD690001DD51800AE5
:1015AC007E0FD8A0DCEF0AF0DEEF0AF0E0EF0AF0D5
:1015BC0098EF0CF00001DA51D8A4E7EF0AF0E9EF4C
:1015CC000AF0F5EF0AF00001DD29D8A4F0EF0AF0DB
:1015DC00F2EF0AF0F5EF0AF0000E0001DD6FDDC04E
:1015EC00D1F00001D26BD1BFD2070001DC51000158
:1015FC00B46FB56BB4BFB507000E0001B76F150E15
:10160C00B66F0DEC1AF00001DB51150D600E0001E8
:10161C00D36F000ED46FF350D327F450D4230001B2
:10162C00B4510001D3270001B5510001D4230001AE
:10163C00DA510001D327000ED423D151D325D96E12
:10164C00D251D421DA6E020EDE18D8B430EF0BF082
:10165C0032EF0BF075EF0CF0DDC0D1F00001D26B66
:10166C00D1BFD2070001DC510001B46FB56BB4BF20
:10167C00B507000E0001B76F150EB66F0DEC1AF022
:10168C000001DB51150D9C0E0001D36F010ED46FC0
:10169C00F350D327F450D4230001B4510001D327C5
:1016AC000001B5510001D4230001DA510001D32708
:1016BC00000ED423D151D325D96ED251D421DA6E58
:1016CC00DE04D8A46CEF0BF06EEF0BF075EF0CF0A2
:1016DC000001DC510001D0250001B76F0001DD5184
:1016EC000001D9256DEC17F0DDC0D1F00001D26BF3
:1016FC00D1BFD2070001DC510001B46FB56BB4BF90
:10170C00B507000E0001B76F150EB66F0DEC1AF091
:10171C000001DB51150D600E0001D36F000ED46F6C
:10172C00F350D327F450D4230001B4510001D32734
:10173C000001B5510001D4230001DA510001D32777
:10174C00000ED423D151D325D96ED251D421DA6EC7
:10175C00DDC0D5F0D66BD5BFD6070001DC5100013A
:10176C00B46FB56BB4BFB507000E0001B76F150EA3
:10177C00B66F0DEC1AF00001DB51150D9C0E00013B
:10178C00D76F010ED86FF350D727F450D823000130
:10179C00B4510001D7270001B5510001D823000135
:1017AC00DA510001D727000ED823D551D725E16E89
:1017BC00D651D821E26EDFCFE7FFDDC0D1F00001BA
:1017CC00D26BD1BFD2070001DC510001B46FB56BF5
:1017DC00B4BFB507000E0001B76F150EB66F0DEC58
:1017EC001AF00001DB51150D600E0001D36F000ED5
:1017FC00D46FF350D327F450D4230001B45100011B
:10180C00D3270001B5510001D4230001DA510001A6
:10181C00D327000ED423D151D325D96ED251D42144
:10182C00DA6E200EDE18D8A41EEF0CF020EF0CF0B0
:10183C003EEF0CF00001DB510001DC250001C86F0C
:10184C00E86AD8B0E82A0001DCBFE8060001C96FDD
:10185C000001DA510001DD250001CA6FE86AD8B039
:10186C00E82A0001DDBFE8060001CB6F06EC12F0A0
:10187C00DDC0D1F00001D26BD1BFD2070001DC5129
:10188C000001B46FB56BB4BFB507000E0001B76FA4
:10189C00150EB66F0DEC1AF00001DB51150D9C0EF8
:1018AC000001D36F010ED46FF350D327F450D4231F
:1018BC000001B4510001D3270001B5510001D4231C
:1018CC000001DA510001D327000ED423D151D325C6
:1018DC00D96ED251D421DA6EDF5044EC19F0130ECC
:1018EC000001DA19D8A47DEF0CF07FEF0CF08BEF30
:1018FC000CF00001DD51D8A486EF0CF088EF0CF051
:10190C008BEF0CF0010E0001DD6F0001DD2B0001EF
:10191C00DD51800A7E0FD8A096EF0CF098EF0CF0FA
:10192C00E0EF0AF0030E0001DB19D8A4A0EF0CF0D5
:10193C00A2EF0CF0AEEF0CF00001DC51D8A4A9EF33
:10194C000CF0ABEF0CF0AEEF0CF0010E0001DC6F05
:10195C000001DC2B0001DC51800A7E0FD8A0B9EF0E
:10196C000CF0BBEF0CF0BCEF0AF012000001C56FDD
:10197C00C5C0C3F0BAC0C4F00001C6690001C651AD
:10198C00800A7E0FD8A0CDEF0CF0CFEF0CF0D1EF8A
:10199C000CF07BEF0EF00001BA51D8A4D8EF0CF08C
:1019AC00DAEF0CF0E6EF0CF00001C629D8A4E1EF59
:1019BC000CF0E3EF0CF0E6EF0CF0000E0001C66F3C
:1019CC000001C7690001C751800A7E0FD8A0F1EF52
:1019DC000CF0F3EF0CF0F5EF0CF058EF0EF00001FB
:1019EC00C551D8A4FCEF0CF0FEEF0CF00AEF0DF093
:1019FC000001C729D8A405EF0DF007EF0DF00AEF91
:101A0C000DF0000E0001C76FC7C0BBF00001BC6B2E
:101A1C00BBBFBC070001C6510001B46FB56BB4BFAE
:101A2C00B507000E0001B76F150EB66F0DEC1AF06E
:101A3C000001BA51150D600E0001BD6F000EBE6F96
:101A4C00F350BD27F450BE230001B4510001BD2753
:101A5C000001B5510001BE230001C5510001BD2795
:101A6C00000EBE23BB51BD25D96EBC51BE21DA6E12
:101A7C00020EDE18D8B445EF0DF047EF0DF035EF40
:101A8C000EF0C7C0BBF00001BC6BBBBFBC070001B4
:101A9C00C6510001B46FB56BB4BFB507000E0001A1
:101AAC00B76F150EB66F0DEC1AF00001BA51150D8B
:101ABC009C0E0001BD6F010EBE6FF350BD27F4509C
:101ACC00BE230001B4510001BD270001B551000136
:101ADC00BE230001C5510001BD27000EBE23BB5122
:101AEC00BD25D96EBC51BE21DA6EDE04D8A481EFBF
:101AFC000DF083EF0DF035EF0EF00001C651000133
:101B0C00BA250001BB6FBB290001B76F0001C7519B
:101B1C000001C5250001BC6FBC296DEC17F0C7C0D6
:101B2C00BBF00001BC6BBBBFBC070001C651000180
:101B3C00B46FB56BB4BFB507000E0001B76F150ECF
:101B4C00B66F0DEC1AF00001BA51150D600E0001C4
:101B5C00BD6F000EBE6FF350BD27F450BE230001C5
:101B6C00B4510001BD270001B5510001BE23000195
:101B7C00C5510001BD27000EBE23BB51BD25D96E3A
:101B8C00BC51BE21DA6EC7C0BFF0C06BBFBFC0076F
:101B9C000001C6510001B46FB56BB4BFB507000EA0
:101BAC000001B76F150EB66F0DEC1AF00001BA51AB
:101BBC00150D9C0E0001C16F010EC26FF350C127B1
:101BCC00F450C2230001B4510001C1270001B551EA
:101BDC000001C2230001C5510001C127000EC22320
:101BEC00BF51C125E16EC051C221E26EDFCFE7FFCC
:101BFC00C7C0BBF00001BC6BBBBFBC070001C6512A
:101C0C000001B46FB56BB4BFB507000E0001B76F20
:101C1C00150EB66F0DEC1AF00001BA51150D9C0E95
:101C2C000001BD6F010EBE6FF350BD27F450BE23F3
:101C3C000001B4510001BD270001B5510001BE23C4
:101C4C000001C5510001BD27000EBE23BB51BD25AF
:101C5C00D96EBC51BE21DA6EDF5044EC19F0130E74
:101C6C000001C519D8A43DEF0EF03FEF0EF04BEF7D
:101C7C000EF00001C751D8A446EF0EF048EF0EF05D
:101C8C004BEF0EF0010E0001C76F0001C72B0001D6
:101C9C00C751800A7E0FD8A056EF0EF058EF0EF009
:101CAC00F5EF0CF0030E0001BA19D8A460EF0EF09A
:101CBC0062EF0EF06EEF0EF00001C651D8A469EF82
:101CCC000EF06BEF0EF06EEF0EF0010E0001C66F12
:101CDC000001C62B0001C651800A7E0FD8A079EFF7
:101CEC000EF07BEF0EF0D1EF0CF01200000E0001A5
:101CFC00CA6F000E0001CB6F000E0001CC6F000EFE
:101D0C000001CD6F77EF0FF0030E0001CC6591EF62
:101D1C000EF093EF0EF095EF0EF077EF0FF0000E44
:101D2C000001CD6F130E0001CD659FEF0EF0A1EFFA
:101D3C000EF0A3EF0EF06CEF0FF00001CC51150D6F
:101D4C009C0E0001C66F010EC76FF350C627F450EE
:101D5C00C7230001CD510001C625D96E0001000E2C
:101D6C000001C721DA6EDE04D8B4BFEF0EF0C1EF6C
:101D7C000EF0E0EF0EF00001CC51150D9C0E0001A1
:101D8C00C66F010EC76FF350C627F450C72300016E
:101D9C00CD510001C625D96E0001000E0001C721EE
:101DAC00DA6E030EDE18D8A4DEEF0EF0E0EF0EF0C4
:101DBC0003EF0FF00001CC51150D600E0001C66F42
:101DCC00000EC76FF350C627F450C7230001CD5146
:101DDC000001C625D96E0001000E0001C721DA6E84
:101DEC00020EDE18D8A4FDEF0EF0FFEF0EF003EF9D
:101DFC000FF00001CA2B61EF0FF00001CC51150D53
:101E0C009C0E0001C66F010EC76FF350C627F4502D
:101E1C00C7230001CD510001C625D96E0001000E6B
:101E2C000001C721DA6EDE04D8B41FEF0FF021EFEA
:101E3C000FF040EF0FF00001CC51150D9C0E00017E
:101E4C00C66F010EC76FF350C627F450C7230001AD
:101E5C00CD510001C625D96E0001000E0001C7212D
:101E6C00DA6E030EDE18D8A43EEF0FF040EF0FF041
:101E7C0061EF0FF00001CC51150D600E0001C66F23
:101E8C00000EC76FF350C627F450C7230001CD5185
:101E9C000001C625D96E0001000E0001C721DA6EC3
:101EAC00020EDE18D8B45DEF0FF05FEF0FF061EFAC
:101EBC000FF00001CB2B0001CD2B130E0001CD65D3
:101ECC006AEF0FF06CEF0FF0A3EF0EF00001CC2BCC
:101EDC00030E0001CC6575EF0FF077EF0FF095EF67
:101EEC000EF0030E0001CC657EEF0FF080EF0FF0CB
:101EFC008AEF0EF0130E0001CD6587EF0FF089EF1E
:101F0C000FF08AEF0EF0C4C0D9FFC5C0DAFF000194
:101F1C00CA510001C86FC96BDE50C81907E1DE5009
:101F2C00C919D8A49CEF0FF09EEF0FF0B3EF0FF090
:101F3C000001CB51D8A4A5EF0FF0A7EF0FF0B3EF32
:101F4C000FF0B5EC18F0C4C0D9FFC5C0DAFFDE2A1B
:101F5C00000EDD22010EB4EF0FF0000E1200000196
:101F6C00E76F0001DE51150DEA0E0001DF6FFF0E69
:101F7C00E06F9C0EE16F010EE26FDF51E127E05143
:101F8C00E223F350E127F450E2230001E751000172
:101F9C00E125D96E0001000E0001E221DA6E030E7C
:101FAC00DE18D8B4DCEF0FF0DEEF0FF0E4EF10F03A
:101FBC000001DE51150DEA0E0001DF6FFF0EE06F20
:101FCC00600EE16F000EE26FDF51E127E051E2237A
:101FDC00F350E127F450E2230001E7510001E12521
:101FEC00D96E0001000E0001E221DA6E020EDE183D
:101FFC00D8A403EF10F005EF10F02FEF10F0000154
:10200C00DE51150DEA0E0001DF6FFF0EE06F9C0E26
:10201C00E16F010EE26FDF51E127E051E223F35053
:10202C00E127F450E2230001E7510001E125D96ECC
:10203C000001000E0001E221DA6E030EDE18D8B4A6
:10204C002AEF10F02CEF10F02FEF10F0000EE5EF50
:10205C0010F00001DE51150DEA0E0001DF6FFF0ECE
:10206C00E06F600EE16F000EE26FDF51E127E0518F
:10207C00E223F350E127F450E2230001E751000181
:10208C00E125D96E0001000E0001E221DA6E020E8C
:10209C00DE18D8B454EF10F056EF10F0DEEF10F05D
:1020AC000001DE51150DEA0E0001DF6FFF0EE06F2F
:1020BC00600EE16F000EE26FDF51E127E051E22389
:1020CC00F350E127F450E2230001E7510001E12530
:1020DC00D96E0001000E0001E221DA6E200EDE182E
:1020EC00D8B47BEF10F07DEF10F0DEEF10F00001B4
:1020FC00DE51150DEA0E0001DF6FFF0EE06F600E72
:10210C00E16F000EE26FDF51E127E051E223F35063
:10211C00E127F450E2230001E7510001E125D96EDB
:10212C000001000E0001E221DA6E0001DE51150DF6
:10213C00EA0E0001E36FFF0EE46F9C0EE56F010EDB
:10214C00E66FE351E527E451E623F350E527F4501D
:10215C00E6230001E7510001E525E16E0001000EC8
:10216C000001E621E26EDFCFE7FF0001DE51150D25
:10217C00EA0E0001DF6FFF0EE06F9C0EE16F010EA7
:10218C00E26FDF51E127E051E223F350E127F450F5
:10219C00E2230001E7510001E125D96E0001000E98
:1021AC000001E221DA6EDF5044EC19F0E4EF10F09C
:1021BC00DEC0D0F00001E751A4EC0AF0010E1200D1
:1021CC00020E0001F46F0A0E0001F56F000E000103
:1021DC00F36F0C0EF26F000E0001F16FAFEC19F003
:1021EC0021EC1AF0F9EC19F02AEC17F051EC1AF07A
:1021FC00A8EC14F0F2C0C8F0F3C0C9F07AEC15F0FA
:10220C0005EC13F0A6EC17F0F50E0001B96F000EFB
:10221C00BA6FF40E0001BB6F000EBC6FE5EC13F04F
:10222C0081A21BEF11F01DEF11F054EF11F0F20E23
:10223C000001C46F000EC56F7CEC0EF00001F16F55
:10224C00F4C0DEF00001F551B5EC0FF00009D8B484
:10225C0032EF11F034EF11F03DEF11F00001F10508
:10226C00D8A43BEF11F03DEF11F0F9EF11F0DDECDC
:10227C0017F081A244EF11F046EF11F03FEF11F08F
:10228C00A8EC14F0F2C0C8F0F3C0C9F07AEC15F069
:10229C0005EC13F0A6EC17F0F9EF11F081B059EF43
:1022AC0011F05BEF11F0F9EF11F00001F451150D85
:1022BC00EA0E0001EC6FFF0EED6F9C0EEE6F010E3F
:1022CC00EF6FEC51EE27ED51EF23F350EE27F45066
:1022DC00EF230001F5510001EE25D96E0001000E2F
:1022EC000001EF21DA6EDE04D8A47FEF11F081EF4C
:1022FC0011F0A6EF11F00001F451150DEA0E0001DA
:10230C00EC6FFF0EED6F9C0EEE6F010EEF6FEC514C
:10231C00EE27ED51EF23F350EE27F450EF2300019D
:10232C00F5510001EE25D96E0001000E0001EF21E0
:10233C00DA6E030EDF6E030E44EC19F0F0EF11F0C1
:10234C000001F451150DEA0E0001EC6FFF0EED6F5C
:10235C009C0EEE6F010EEF6FEC51EE27ED51EF235B
:10236C00F350EE27F450EF230001F5510001EE2558
:10237C00D96E0001000E0001EF21DA6E030EDE189B
:10238C00D8A4CBEF11F0CDEF11F0F0EF11F000016C
:10239C00F451150DEA0E0001EC6FFF0EED6F9C0E63
:1023AC00EE6F010EEF6FEC51EE27ED51EF23F35072
:1023BC00EE27F450EF230001F5510001EE25D96E04
:1023CC000001000E0001EF21DA6E010EDF6E010E2E
:1023DC0044EC19F0090E0001EC6F1C0EE82EFED730
:1023EC00EC2FFCD700F0210E0001EC6F760EE82EDE
:1023FC00FED7EC2FFCD700F00AEF11F000EF00F045
:10240C00000E0101996F000E986F000E0001BA6F5B
:10241C00010EBB6FC8C0BCF0C9C0BDF0CAC0BEF0D5
:10242C00CBC0BFF098C1C0F01EEC03F0F1EF12F07E
:10243C00D89001019835D96E9935DA6E000ED926EF
:10244C00010EDA22DECFB4F0DDCFB5F0000E0001C4
:10245C00B76F640EB66F17EC15F00001B4510101A3
:10246C009A6FD89001019835D96E9935DA6E000EB5
:10247C00D926010EDA22DECFC2F0DDCFC3F0000E7A
:10248C000001C56F640EC46F35EC16F00001C2512B
:10249C0001019B6F000E0001BA6F010EBB6F9AC158
:1024AC00BCF00001BD6B9BC1BEF00001BF6B98C1BD
:1024BC00C0F01EEC03F001019A51150D600E0001E5
:1024CC00CC6F000ECD6FF350CC27F450CD2301010F
:1024DC009B510001CC25D96E0101000E0001CD21CC
:1024EC00DA6E020EDE18D8B47EEF12F080EF12F026
:1024FC00E8EF12F001019A51150D600E0001CC6F3E
:10250C00000ECD6FF350CC27F450CD2301019B511D
:10251C000001CC25D96E0101000E0001CD21DA6E2F
:10252C00200EDE18D8B49DEF12F09FEF12F0E8EFFA
:10253C0012F001019A51150D600E0001CC6F000EC6
:10254C00CD6FF350CC27F450CD2301019B510001EA
:10255C00CC25D96E0101000E0001CD21DA6E0101EE
:10256C009A51150D9C0E0001CE6F010ECF6FF350DA
:10257C00CE27F450CF2301019B510001CE25E16EF3
:10258C000101000E0001CF21E26EDFCFE7FF010158
:10259C009A51150D9C0E0001CC6F010ECD6FF350AE
:1025AC00CC27F450CD2301019B510001CC25D96ED1
:1025BC000101000E0001CD21DA6EDF5044EC19F060
:1025CC00EEEF12F09BC1BAF001019A51BCEC0CF089
:1025DC000101984B992BD89001019835D96E9935FA
:1025EC00DA6E000ED926010EDA22DE50DE10D8A4E7
:1025FC0002EF13F004EF13F01EEF12F01200000EB6
:10260C000001C76F000E0001C96F030E0001C96500
:10261C0012EF13F014EF13F016EF13F0C0EF13F0EA
:10262C00000E0001CA6F130E0001CA6520EF13F0F3
:10263C0022EF13F024EF13F0B5EF13F0C9C0BAF08A
:10264C000001BB6BCAC0BCF00001BD6B5DEC08F0B7
:10265C000001C76F300E0001C719D8B438EF13F062
:10266C003AEF13F073EF13F00001C951150D600E22
:10267C000001C46F000EC56FF350C427F450C5237E
:10268C000001CA510001C425D96E0001000E0001E1
:10269C00C521DA6E020EDE18D8B457EF13F059EFDD
:1026AC0013F073EF13F00001C951150D600E00010A
:1026BC00C46F000EC56FF350C427F450C52300013E
:1026CC00CA510001C425D96E0001000E0001C521BC
:1026DC00DA6EC7C0DFFFAAEF13F00001C951150D68
:1026EC00600E0001C46F000EC56FF350C427F45088
:1026FC00C5230001CA510001C425D96E0001000E8A
:10270C000001C521DA6E020EDE18D8B490EF13F07A
:10271C0092EF13F0AAEF13F00001C951150D600EE2
:10272C000001C46F000EC56FF350C427F450C523CD
:10273C000001CA510001C425D96E0001000E000130
:10274C00C521DA6E200EDF6E0001CA2B130E0001BC
:10275C00CA65B3EF13F0B5EF13F024EF13F00001DB
:10276C00C92B030E0001C965BEEF13F0C0EF13F0C7
:10277C0016EF13F0000E0001C86F030E0001C865C0
:10278C00CAEF13F0CCEF13F0CEEF13F0E4EF13F02D
:10279C000001C851150D740EF324D96E000EF420EF
:1027AC00DA6E000EDF6E0001C82B030E0001C86547
:1027BC00E2EF13F0E4EF13F0CEEF13F01200070E7C
:1027CC00E3EC19F00001BD6FB40EBD65F0EF13F032
:1027DC00F2EF13F013EF14F0B9C0D9FFBAC0DAFF5F
:1027EC00DF500001BD6FBD05B9C0D9FFBAC0DAFF1B
:1027FC00DF6EB9C0D9FFBAC0DAFFDF50D8A409EF39
:10280C0014F00BEF14F03FEF14F0B9C0D9FFBAC0BD
:10281C00DAFF140EDF6E3FEF14F0070EE3EC19F045
:10282C000001BD6F500EBD611EEF14F020EF14F0CF
:10283C003FEF14F0B9C0D9FFBAC0DAFFDF50000186
:10284C00BD6FBD29B9C0D9FFBAC0DAFFDF6EB9C000
:10285C00D9FFBAC0DAFF140EDF6437EF14F039EF8A
:10286C0014F03FEF14F0B9C0D9FFBAC0DAFF010E73
:10287C00DF6E060EE3EC19F00001BD6F500EBD616A
:10288C004AEF14F04CEF14F06DEF14F0BBC0D9FF0D
:10289C00BCC0DAFFDF500001BD6FBD05BBC0D9FF66
:1028AC00BCC0DAFFDF6EBBC0D9FFBCC0DAFFDF50A3
:1028BC00D8A463EF14F065EF14F099EF14F0BBC0DB
:1028CC00D9FFBCC0DAFF040EDF6E99EF14F0060ED0
:1028DC00E3EC19F00001BD6FB40EBD6578EF14F098
:1028EC007AEF14F099EF14F0BBC0D9FFBCC0DAFF3B
:1028FC00DF500001BD6FBD29BBC0D9FFBCC0DAFFE2
:10290C00DF6EBBC0D9FFBCC0DAFF040EDF6491EFF1
:10291C0014F093EF14F099EF14F0BBC0D9FFBCC0C6
:10292C00DAFF010EDF6EBBC0D9FFBCC0DAFFDF508F
:10293C000001B76FB9C0D9FFBAC0DAFFDF506DEC38
:10294C0017F01200000E0001B66F030E0001B66501
:10295C00B2EF14F0B4EF14F0B6EF14F0F2EF14F091
:10296C00000E0001B76F130E0001B765C0EF14F035
:10297C00C2EF14F0C4EF14F0E7EF14F00001B651FD
:10298C00150D9C0E0001B46F010EB56FF350B427FA
:10299C00F450B5230001B7510001B425D96E0001E4
:1029AC00000E0001B521DA6E010EDF6E0001B72BAF
:1029BC00130E0001B765E5EF14F0E7EF14F0C4EF68
:1029CC0014F00001B62B030E0001B665F0EF14F005
:1029DC00F2EF14F0B6EF14F0000E0001B86F030E16
:1029EC000001B865FCEF14F0FEEF14F000EF15F0E9
:1029FC0016EF15F00001B851150DB00EF324D96E79
:102A0C00010EF420DA6E000EDF6E0001B82B030EFF
:102A1C000001B86514EF15F016EF15F000EF15F086
:102A2C001200000E0001B96FB7BF21EF15F01FEFB8
:102A3C0015F027EF15F0B66DB71FD8B0B72B010EF8
:102A4C00B96FB5BF2EEF15F02CEF15F034EF15F074
:102A5C00B46DB51FD8B0B52B010EB91B000EBB6FF2
:102A6C00000EBA6FB651B711D8B43FEF15F041EF65
:102A7C0015F069EF15F0010EB86F49EF15F0D8900D
:102A8C00B637B737B82BB7AF4EEF15F050EF15F090
:102A9C0045EF15F0D890BA37BB37B651B45DB75186
:102AAC00B559D8A05CEF15F05EEF15F063EF15F09B
:102ABC00B651B45FB751B55BBA81D890B733B63362
:102ACC00B82F50EF15F0B951D8B46FEF15F071EF76
:102ADC0015F075EF15F0BA6DBB1FD8B0BB2BBAC093
:102AEC00B4F0BBC0B5F01200C8C0CDF0DFEC16F0EE
:102AFC00D1EF15F019EC19F00001C051030B0001D6
:102B0C00CE6F19EC19F0C0C0C2F0C1C0C3F0000EFA
:102B1C000001C56F140EC46F35EC16F00001C251E4
:102B2C000001CF6F0001CE51150D600E0001CA6F70
:102B3C00000ECB6FF350CA27F450CB230001CF51BA
:102B4C000001CA25D96E0001000E0001CB21DA6EFE
:102B5C00020EDE18D8B4B5EF15F0B7EF15F0D1EFC3
:102B6C0015F00001CE51150D600E0001CA6F000E5C
:102B7C00CB6FF350CA27F450CB230001CF51000187
:102B8C00CA25D96E0001000E0001CB21DA6E020EAF
:102B9C00DF6E0001CD070001CD51D8A4D8EF15F0A0
:102BAC00DAEF15F080EF15F01200000E0001C16F86
:102BBC0008EF16F00001C1510001BC6FBD6BBC5198
:102BCC000001B9250001BE6FBD510001BA21000101
:102BDC00BF6F000E0001BB210001C06FBEC0F6FF2D
:102BEC00BFC0F7FFC0C0F8FFF8BA03D00800F5501B
:102BFC0005D0F6CFE1FFF7CFE2FFE75044EC19F038
:102C0C000001C12B0001C1510001BC6FBD6BBC5157
:102C1C000001B9250001BE6FBD510001BA210001B0
:102C2C00BF6F000E0001BB210001C06FBEC0F6FFDC
:102C3C00BFC0F7FFC0C0F8FFF8BA03D00800F550CA
:102C4C0005D0F6CFE1FFF7CFE2FFE7500009D8A49B
:102C5C0032EF16F034EF16F0E0EF15F01200000E24
:102C6C000001C76FC3BF3FEF16F03DEF16F045EF05
:102C7C0016F0C26DC31FD8B0C32B010EC76FC5BFF2
:102C8C004CEF16F04AEF16F050EF16F0C46DC51F5E
:102C9C00D8B0C52BC451C511D8B457EF16F059EFA5
:102CAC0016F07DEF16F0010EC66F61EF16F0D8909E
:102CBC00C437C537C62BC5AF66EF16F068EF16F0F4
:102CCC005DEF16F0C451C25DC551C359D8A071EF68
:102CDC0016F073EF16F077EF16F0C451C25FC551C2
:102CEC00C35BD890C533C433C62F68EF16F0C751F9
:102CFC00D8B483EF16F085EF16F089EF16F0C26D9D
:102D0C00C31FD8B0C32BC2C0C2F0C3C0C3F01200E3
:102D1C00400E4AEC18F0000E0001B96F070E0001CE
:102D2C00B9659BEF16F09DEF16F09FEF16F0DCEFF8
:102D3C0016F0000E0001BA6F070E0001BA65A9EF7C
:102D4C0016F0ABEF16F0ADEF16F0D1EF16F0000168
:102D5C00B951080D000E0001B76F020EB86FF35099
:102D6C00B727F450B8230001BA510001B725D96E2A
:102D7C000001000E0001B821DA6EDF50C9EC19F029
:102D8C000001BA2B070E0001BA65CFEF16F0D1EF98
:102D9C0016F0ADEF16F00001B92B070E0001B96566
:102DAC00DAEF16F0DCEF16F09FEF16F055EC1AF098
:102DBC001200000E0001B66F030E0001B665E9EFBC
:102DCC0016F0EBEF16F0EDEF16F029EF17F0000E02
:102DDC000001B76F130E0001B765F7EF16F0F9EFAE
:102DEC0016F0FBEF16F01EEF17F00001B651150DA3
:102DFC00600E0001B46F000EB56FF350B427F450A1
:102E0C00B5230001B7510001B425D96E0001000EA5
:102E1C000001B521DA6E200EDF6E0001B72B130E08
:102E2C000001B7651CEF17F01EEF17F0FBEF16F063
:102E3C000001B62B030E0001B66527EF17F029EF42
:102E4C0017F0EDEF16F01200010EF66E060EF76E8F
:102E5C00000EF86E20EEC4F0270E0900F5CFDEFF51
:102E6C00E806FBE246EC1AF0C40E0001B96F000E46
:102E7C00BA6FB951BA11D8A4200EBB6FDBEC15F0A8
:102E8C00030E0001B76F010E6DEC17F0D80E0001A8
:102E9C00B96F000EBA6FB951BA11D8A4200EBB6F1E
:102EAC00DBEC15F055EC1AF04DEC1AF0020E0001AB
:102EBC00C36F450EC26FA90EE82EFED7C22FFCD7EA
:102ECC00C32FFAD700F000F046EC1AF01200000104
:102EDC00B86F91EF17F00001B8517F0F80094AECE1
:102EEC0018F0A5EF17F00001B851BF0F80094AEC9C
:102EFC0018F0A5EF17F00001B851930F80094AECB8
:102F0C0018F0A5EF17F00001B851D30F80094AEC67
:102F1C0018F0A5EF17F00001B751010AD8B471EF02
:102F2C0017F0030AD8B479EF17F0010AD8B481EF7F
:102F3C0017F0070AD8B489EF17F0A5EF17F01200B5
:102F4C00000E0001C46F030E0001C465B0EF17F052
:102F5C00B2EF17F0B4EF17F0DCEF17F00001C42953
:102F6C000001B76F010E6DEC17F00001C451150D87
:102F7C009C0EF3240001C26F010EF420C36FC2C07B
:102F8C00B9F0C3C0BAF00001B951BA11D8A4200EDF
:102F9C00BB6FDBEC15F00001C42B030E0001C46504
:102FAC00DAEF17F0DCEF17F0B4EF17F01200000EA9
:102FBC000001C46F030E0001C465E7EF17F0E9EFE1
:102FCC0017F0EBEF17F013EF18F00001C429000114
:102FDC00B76F010E6DEC17F00001C451150D600EAA
:102FEC00F3240001C26F000EF420C36FC2C0B9F00D
:102FFC00C3C0BAF00001B951BA11D8A4200EBB6FEE
:10300C00DBEC15F00001C42B030E0001C46511EFBD
:10301C0018F013EF18F0EBEF17F01200000E000190
:10302C00BC6F000EBD6F000EBE6F000EBF6FB4A163
:10303C0022EF18F024EF18F02CEF18F0B851BC2741
:10304C00B951BD23BA51BE23BB51BF23D890B83759
:10305C00B937BA37BB37D890B733B633B533B43387
:10306C00B451B511B611B711D8A43FEF18F041EF18
:10307C0018F01DEF18F0BCC0B4F0BDC0B5F0BEC068
:10308C00B6F0BFC0B7F012000001B66F6EEC19F0CD
:10309C00000E956E809080920001B6390F0B30ECCB
:1030AC001AF059EC1AF00001B65130EC1AF059EC48
:1030BC001AF0030EE82EFED700F00001B605D8B4C6
:1030CC006AEF18F06CEF18F076EF18F0020E0001B2
:1030DC00B619D8A474EF18F076EF18F07BEF18F04F
:1030EC00A60EE82EFED700F000F00F0E956E6EECDB
:1030FC0019F01200000E956E0D0E0001B66FFB0E4E
:10310C00E82EFED7B62FFCD700F000F0809080920E
:10311C00030E30EC1AF059EC1AF0030EE82EFED721
:10312C0000F0030E30EC1AF059EC1AF0030EE82EF6
:10313C00FED700F0030E30EC1AF059EC1AF0030E27
:10314C00E82EFED700F0020E30EC1AF059EC1AF013
:10315C00030EE82EFED700F00F0E956E120046EC13
:10316C001AF0020E0001B76F050E6DEC17F0290E68
:10317C000001B96F060EBA6FB951BA11D8A4000E7E
:10318C00BB6FDBEC15F0030E0001B76F060E6DEC98
:10319C0017F0320E0001B96F060EBA6FB951BA11A1
:1031AC00D8A4000EBB6FDBEC15F0040E0001C36F4E
:1031BC002C0EC26FAB0EE82EFED7C22FFCD7C32F3E
:1031CC00FAD700F000F012001E0EF66E330EF76EFA
:1031DC00000EF86E02EE00F010EE40F00900F5CF94
:1031EC00EEFFE550E150FAE1C00EF66E340EF76ECC
:1031FC00000EF86E00EEF6F010EE04F00900F5CFBC
:10320C00EEFFE550E150FAE101EE9CF0540EEE6A4F
:10321C00E806FDE100EE60F0540EEE6AE806FDE112
:10322C000001E6EF10F0F6C0B4F0F7C0B5F0F8C04E
:10323C00B6F0F9C0B7F06D0E0001B86F4E0EB96F55
:10324C00C60EBA6F410EBB6F14EC18F0B4C0F6F09A
:10325C00B5C0F7F0B6C0F8F0B7C0F9F0390E000100
:10326C00F627300EF723000EF823000EF923FF0E7D
:10327C00F815C06F7F0EF915C16F12000001B76F02
:10328C000001B751C9EC19F00001B86F5DEF19F0EE
:10329C00C00E4AEC18F06DEF19F0940E4AEC18F0D1
:1032AC006DEF19F0D40E4AEC18F06DEF19F0000127
:1032BC00B851940AD8B44EEF19F0540AD8B458EF58
:1032CC0019F0140AD8B453EF19F06DEF19F012007D
:1032DC0080908082808400F05DEC1AF00001B46F65
:1032EC00B439F00B0001B56F8094808400F05DEC74
:1032FC001AF00001B51380940001B5BF88EF19F0E6
:10330C008AEF19F070EF19F080920001B5517F0B24
:10331C0012000804040A111F11001F1B11111111B6
:10332C001B1F03040A151F150A001F11111F101073
:10333C001010111115150E0A1500110A041B111B82
:10334C0015001B0E1B1B1B1111000A0415151B0A63
:10335C000400000E956E000E7F6E9368000E7E6E5C
:10336C00000E926ECD80CECFB4F0CFCFB5F03EEC48
:10337C001AF07E8EC280000EC16EC09EC70EC016A3
:10338C00F80EC01612000001B66F6EEC19F0000EAC
:10339C00956E808080920001B6390F0B30EC1AF0DC
:1033AC0059EC1AF00001B65130EC1AF059EC1AF045
:1033BC000F0E956E6EEC19F012000001B56FB5C0D2
:1033CC00B4F00001B447B447C250B419C30BB419DC
:1033DC00C26EC282C2B2F5EF19F0F7EF19F0F0EF3E
:1033EC0019F0C450120080EC18F0280E4AEC18F0BA
:1033FC000F0E4AEC18F0010E4AEC18F0060E4AECCF
:10340C0018F0800E4AEC18F08EEC16F01200000149
:10341C00B451B603F3CFB8F0F4CFB9F0B451B7034D
:10342C00F350B927B551B603F350B927B8C0B4F06F
:10343C00B9C0B5F01200948E948C000EB06E190EBB
:10344C00AF6EB886AC84AC98AC8AAB88AB8E000EF1
:10345C007E6E12000001B56F83CFB4F0F00E000148
:10346C00B4170001B5510F0B0001B411836E12009B
:10347C00B4C0F6F0B5C0F7F00001F86BF96B1200B0
:10348C00010E4AEC18F0800E4AEC18F012000C0EEB
:10349C004AEC18F012000F0E4AEC18F01200020E53
:1034AC004AEC18F01200808400F0809412008350D3
:0834BC000F0B120001000000DB
:020000040020DA
:08000000FFFFFFFFFFFFFFFF00
:020000040030CA
:0E000000FF081F1EFF8B81FF0FC00FE00F4097
:00000001FF
